:100000000C9437000C945F000C945F000C945F001C
:100010000C945F000C945F000C945F000C945F00E4
:100020000C945F000C945F000C945F000C945F00D4
:100030000C945F000C945F000C945F000C945F00C4
:100040000C9473020C945F000C9427030C947503BA
:100050000C945F000C945F000C945F000C945F00A4
:100060000C945F000C945F002D01E3042601112421
:100070001FBECFEFD8E0DEBFCDBF11E0A0E0B1E002
:10008000EAE1F5E102C005900D92A238B107D9F777
:1000900012E0A2E8B1E001C01D92AE34B107E1F771
:1000A00010E0CCE6D0E004C02297FE010E94680A6E
:1000B000C836D107C9F70E9439050C94800A0C9400
:1000C0000000FB01DC0102C001900D924150504044
:1000D000D8F70895FB01DC0101900D920020E1F7B3
:1000E0000895FB019F01E8944230C4F04532B4F416
:1000F0004A3029F497FB1EF4909581959F4F642F09
:1001000077270E946C0A805D8A330CF0895D8193A9
:10011000CB010097A1F716F45DE251931082C9015B
:100120000C94EB00FA01CF93FF93EF93223044F14C
:10013000253234F5C22FE894CA3049F497FB3EF4D7
:1001400090958095709561957F4F8F4F9F4F2C2F85
:10015000332744275527FF93EF930E94440AEF91DA
:10016000FF91605D6A330CF0695D6193B901CA016A
:10017000605070408040904051F716F4CDE2C1933A
:1001800010828F919F91CF910C94EB00FA01CF9345
:10019000FF93EF932230CCF02532BCF4C22F2C2FEA
:1001A000332744275527FF93EF930E94440AEF918A
:1001B000FF91605D6A330CF0695D6193B901CA011A
:1001C000605070408040904051F710828F919F9115
:1001D000CF910C94EB00DC01FC01672F7191772328
:1001E000E1F7329704C07C916D9370836291AE17F2
:1001F000BF07C8F3089581309105B1F46F5F7F4F59
:1002000021F582E891E060E071E00E94CD0789E885
:1002100091E060E071E00E94CD0780E991E060E04C
:1002200071E00E94CD070895892B79F46F5F7F4FAD
:1002300061F480E991E00E94220889E891E00E943F
:10024000220882E891E00E942208089580E090E070
:100250006FEF7FEF0E94FB00089581E090E06FEF69
:100260007FEF0E94FB000895EF92FF920F931F9380
:10027000DF93CF93CDB7DEB7E1970FB6F894DEBF2B
:100280000FBECDBF8E010F5F1F4FC80162E871E046
:100290000E941708C8016BE770E00E945807BC0174
:1002A00080E991E00E940008C8010E94280888E2C5
:1002B00092E060E971E00E94F4058E01085F1F4F33
:1002C000C80162E871E00E941708C80145E15DECD1
:1002D0006BE577E00E944707BC0180E991E00E944E
:1002E0000008C8010E94280888E292E060E971E0F5
:1002F0000E94F4058E01015F1F4FC80162E871E0A2
:100300000E941708C80161E40E946907BC0180E9E6
:1003100091E00E940008C8010E94280888E292E04B
:1003200060E971E00E94F4058E010A5E1F4FC8016A
:1003300062E871E00E941708C80161E071E00E9464
:100340007A07BC0180E991E00E940008C8010E9480
:10035000280888E292E060E971E00E94F4058E01CD
:10036000035E1F4FC80162E871E00E941708C801D0
:1003700069E871E00E949607BC0180E991E00E9463
:100380000008C8010E94280888E292E060E971E054
:100390000E94F4058EE00E9404037C0182E891E053
:1003A00065E071E00E94E7078E010C5D1F4FC801F8
:1003B00062E871E00E941708C801B7010E9458075F
:1003C000BC0180E991E00E940008C8010E94280851
:1003D00088E292E060E971E00E94F4050E94BB02AD
:1003E00082E891E064E171E00E94E7078E01055D1B
:1003F0001F4FC80162E871E00E9417080E94BB020B
:10040000AB01BC01C8010E943607BC0180E991E044
:100410000E940008C8010E94280888E292E060E972
:1004200071E00E94F405FFCF0F931F93DF93CF93EA
:10043000CDB7DEB765970FB6F894DEBF0FBECDBF60
:1004400088E292E040E855E260E070E00E94B0038C
:1004500088E292E00E94E1048823D1F38E010F5FCD
:100460001F4FC80165E271E00E94CD0782E891E06C
:10047000B8010E940008C8010E9422088E01085F8E
:100480001F4FC80164E371E00E94CD0789E891E045
:10049000B8010E940008C8010E9422088E01015F75
:1004A0001F4FC80160E071E00E94CD0780E991E034
:1004B000B8010E940008C8010E94220888E292E068
:1004C00060E471E00E94AE0588E292E00E9472054D
:1004D00065960FB6F894DEBF0FBECDBFCF91DF910A
:1004E0001F910F9108951F920F920FB60F92112432
:1004F0002F933F938F939F93AF93BF9380919B01D3
:1005000090919C01A0919D01B0919E0130919F011D
:100510000196A11DB11D232F2D5F2D3720F02D57E2
:100520000196A11DB11D20939F0180939B01909383
:100530009C01A0939D01B0939E01809197019091A1
:100540009801A0919901B0919A010196A11DB11D48
:100550008093970190939801A0939901B0939A0189
:10056000BF91AF919F918F913F912F910F900FBEAF
:100570000F901F9018958FB7F89420919B013091A0
:100580009C0140919D0150919E018FBFB901CA010C
:100590000895789484B5826084BD84B5816084BDFB
:1005A00085B5826085BD85B5816085BDEEE6F0E0EC
:1005B000808181608083E1E8F0E010828081826048
:1005C0008083808181608083E0E8F0E080818160C9
:1005D0008083E1EBF0E0808184608083E0EBF0E0F9
:1005E000808181608083EAE7F0E08081846080839D
:1005F0008081826080838081816080838081806847
:1006000080831092C1000895982F8E3008F09E507C
:10061000977080916B018295880F880F807C892B61
:1006200080937C0080917A00806480937A0080912E
:100630007A0086FDFCCF2091780040917900942FBC
:1006400080E030E0282B392BC901089508951F92CE
:100650000F920FB60F9211242F933F934F938F93C6
:100660009F93EF93FF938091C00082FD1DC0409146
:10067000C6002091E0013091E1012F5F3F4F2F73C1
:1006800030708091E2019091E3012817390771F0F1
:10069000E091E001F091E101E056FE4F408330939C
:1006A000E1012093E00102C08091C600FF91EF912B
:1006B0009F918F914F913F912F910F900FBE0F906F
:1006C0001F901895E0913402F0913502E05CFF4FE5
:1006D0008191919120813181821B930B8F73907056
:1006E000892B11F00E94260308951F920F920FB6D6
:1006F0000F9211242F933F938F939F93EF93FF9328
:1007000020912402309125028091260290912702A7
:100710002817390731F48091C1008F7D8093C10083
:1007200014C0E0912602F0912702EC51FE4F208187
:10073000809126029091270201968F73907090937A
:100740002702809326022093C600FF91EF919F918C
:100750008F913F912F910F900FBE0F901F90189582
:10076000AF92BF92DF92EF92FF920F931F93CF93BE
:10077000DF93EC017A018B01DD24403081EE5807D4
:1007800080E0680780E0780711F0DD24D39491E0E1
:10079000A92EB12CEC89FD89DD2069F0C50108A0E6
:1007A00002C0880F991F0A94E2F7808360E079E025
:1007B0008DE390E005C0108260E874E88EE190E07F
:1007C000A80197010E94440A215030404040504007
:1007D000569547953795279580E12030380720F0CA
:1007E000DD2011F0DD24D6CFE889F9893083EA894C
:1007F000FB89208319A2EE89FF89408121E030E046
:10080000C9010C8C02C0880F991F0A94E2F7482B8B
:100810004083EE89FF894081C9010D8C02C0880F99
:10082000991F0A94E2F7482B4083EE89FF894081A3
:10083000C9010E8C02C0880F991F0A94E2F7482B59
:100840004083EE89FF8980810F8C02C0220F331F05
:100850000A94E2F7209528232083DF91CF911F91FE
:100860000F91FF90EF90DF90BF90AF900895DC0163
:100870001C96ED91FC911D97E05CFF4F2191319109
:1008800080819181281B390B2F733070C901089525
:10089000DC011C96ED91FC911D97E05CFF4F2081DF
:1008A0003181E054F040DF01AE5BBF4F8D919C91F0
:1008B00011972817390719F42FEF3FEF07C08D91D3
:1008C0009C91E80FF91F8081282F30E0C90108951D
:1008D000DC011C96ED91FC911D97E05CFF4F20819F
:1008E0003181E054F040DF01AE5BBF4F8D919C91B0
:1008F00011972817390719F42FEF3FEF10C08D918A
:100900009C911197E80FF91F20818D919C9111976F
:1009100001968F73907011969C938E9330E0C9016D
:100920000895DC0191968C919197882339F0549623
:10093000ED91FC915597808186FFF9CF91961C929D
:100940000895CF93DF93EC01EE85FF85E05CFF4FC8
:1009500020813181E054F0402F5F3F4F2F73307082
:10096000DF01AE5BBF4F8D919C911197281739071E
:10097000D1F3E05CFF4F80819181E054F040E80FBB
:10098000F91F6083EE85FF85E05CFF4F3183208394
:10099000EE89FF89208181E090E00F8C02C0880FF2
:1009A000991F0A94E2F7282B208381E089A3EC8920
:1009B000FD8980818064808381E090E0DF91CF9128
:1009C000089581E0089510922B0210922A0288EE79
:1009D00093E0A0E0B0E080932C0290932D02A093CE
:1009E0002E02B0932F0286E791E090932902809324
:1009F000280280EA91E0909335028093340284EEDD
:100A000091E0909337028093360285EC90E09093CA
:100A100039028093380284EC90E090933B028093FB
:100A20003A0280EC90E090933D0280933C0281EC8E
:100A300090E090933F0280933E0282EC90E090938E
:100A400041028093400286EC90E0909343028093B1
:100A5000420284E08093440283E08093450287E071
:100A60008093460285E08093470281E080934802AC
:100A70000895CF93DF930E94C9020E941402C2E638
:100A8000D3E00E9434012097E1F30E946203F9CF82
:100A9000CF92DF92EF92FF920F931F93CF93DF934A
:100AA0007C016B018A01C0E0D0E00FC0D6016D91DE
:100AB0006D01D701ED91FC910190F081E02DC7010E
:100AC0000995C80FD91F015010400115110571F784
:100AD000CE01DF91CF911F910F91FF90EF90DF90AA
:100AE000CF900895EF92FF920F931F938C01DC013A
:100AF000ED91FC910190F081E02D6DE009957C0174
:100B0000D801ED91FC910190F081E02DC8016AE0DF
:100B100009959C012E0D3F1DC9011F910F91FF905A
:100B2000EF900895CF93DF93EC016115710519F4EF
:100B300020E030E00FC0DB010D900020E9F71197B5
:100B4000A61BB70BE881F9810280F381E02DAD018E
:100B500009959C01C901DF91CF910895EF92FF9211
:100B60000F931F937C010E9492058C01C7010E9484
:100B70007205080F191FC8011F910F91FF90EF9088
:100B80000895AF92BF92CF92DF92EF92FF920F93B0
:100B90001F93CF93DF935C016B01EE24FF24C0E031
:100BA000D0E010C0D501ED91FC9100811181C6010A
:100BB000BE010E940806682FC501F8010995E80EDC
:100BC000F91E2196F60184819581C817D90750F343
:100BD000C701DF91CF911F910F91FF90EF90DF90B0
:100BE000CF90BF90AF900895EF92FF920F931F9315
:100BF0007C010E94C1058C01C7010E9472059C0105
:100C0000200F311FC9011F910F91FF90EF900895A0
:100C1000FC01848195816817790748F40190F0817F
:100C2000E02D309721F0E60FF71F8081089580E0D6
:100C300008950F931F93CF93DF93EC018B016F5FA8
:100C40007F4F888199810E946309009711F480E0A9
:100C500005C0998388831B830A8381E0DF91CF914C
:100C60001F910F910895CF93DF93EC0188819981B3
:100C7000892B29F08A819B818617970760F4CE0122
:100C80000E941906882341F08C819D81892B19F4DB
:100C9000E881F981108281E0DF91CF910895EF9290
:100CA000FF920F931F93CF93DF93EC017B016C8135
:100CB0007D81E114F104C1F04115510599F08A01DB
:100CC000060F171FB8010E943306882369F0888138
:100CD00099812C813D81820F931FB7010E946A0088
:100CE0001D830C8381E001C080E0DF91CF911F91D3
:100CF0000F91FF90EF900895EF92FF920F931F9343
:100D0000DF93CF93CDB7DEB72B970FB6F894DEBF46
:100D10000FBECDBF7C01CB01BA018E010F5F1F4F0B
:100D2000A8012AE030E00E94C600F80101900020EE
:100D3000E9F73197E01BF10BC701B801AF010E9441
:100D40004F062B960FB6F894DEBF0FBECDBFCF91E6
:100D5000DF911F910F91FF90EF900895EF92FF9216
:100D60000F931F93DF93CF93CDB7DEB72C970FB6BA
:100D7000F894DEBF0FBECDBF7C01CB01BA018E015E
:100D80000F5F1F4FA8012AE030E00E949200F80197
:100D900001900020E9F73197E01BF10BC701B80182
:100DA000AF010E944F062C960FB6F894DEBF0FBE1F
:100DB000CDBFCF91DF911F910F91FF90EF900895DC
:100DC000EF92FF920F931F93DF93CF93CDB7DEB7D0
:100DD00027970FB6F894DEBF0FBECDBF7C01CB01C5
:100DE0008E010F5F1F4FB8014AE050E00E94710072
:100DF000F80101900020E9F73197E01BF10BC701E2
:100E0000B801AF010E944F0627960FB6F894DEBFD7
:100E10000FBECDBFCF91DF911F910F91FF90EF904B
:100E20000895DF93CF9300D0CDB7DEB769831A82E0
:100E3000BE016F5F7F4F41E050E00E944F060F9070
:100E40000F90CF91DF910895CF93DF93EC018881CC
:100E50009981009711F00E94CB08198218821D8297
:100E60001C821B821A82DF91CF9108950F931F93EA
:100E7000182F092F0E947C06882321F4812F902FA0
:100E80000E942407812F902F1F910F9108950F9397
:100E90001F93182F092F0E94AE06882321F4812F5B
:100EA000902F0E942407812F902F1F910F9108955A
:100EB0000F931F93182F092F0E94E006882321F417
:100EC000812F902F0E942407812F902F1F910F9127
:100ED00008950F931F93182F092F0E94110788233D
:100EE00021F4812F902F0E942407812F902F1F9192
:100EF0000F9108950F931F93182F092F61157105F6
:100F000061F0DB010D900020E9F71197A61BB70BEC
:100F1000AD010E944F06882321F4812F902F0E945B
:100F20002407812F902F1F910F9108950F931F93E6
:100F3000182F092FFB0160817181448155810E9426
:100F40004F06882321F4812F902F0E942407812FA0
:100F5000902F1F910F910895EF92FF920F931F937F
:100F6000CF93DF93EC017B018A01BA010E94330623
:100F7000882321F4CE010E94240707C01D830C831F
:100F800088819981B7010E946A00CE01DF91CF91DB
:100F90001F910F91FF90EF900895CF93DF93EC0195
:100FA000198218821B821A821D821C821E82611580
:100FB000710551F0DB010D900020E9F71197A61B98
:100FC000B70BAD010E94AC07DF91CF9108950F934D
:100FD0001F93182F092F6115710559F0DB010D9032
:100FE0000020E9F71197A61BB70BAD010E94AC07D3
:100FF00002C00E942407812F902F1F910F91089506
:10100000CF93DF93EC01FB018617970761F06081B6
:1010100071816115710529F0448155810E94AC07E9
:1010200002C00E942407CE01DF91CF910895FC01F8
:1010300011821082138212821582148216820E94FB
:1010400000080895FC01808191810E94CB080895D9
:10105000FC01808191810E94CB0808950F931F931A
:10106000CF93DF93BC018230910510F462E070E011
:10107000E0914C02F0914D0240E050E0A0E0B0E081
:1010800024C08081918186179707D0F08617970733
:1010900071F482819381109729F013969C938E931B
:1010A00012972CC090934D0280934C0227C041159B
:1010B000510519F08417950718F48D01AC01EF0163
:1010C000DF01828193819C01F9013097D1F64115AE
:1010D0005105F9F0CA01861B970B8430910580F405
:1010E0008A819B810115110521F0F8019383828388
:1010F00004C090934D0280934C02FE01329645C08D
:10110000FE01E80FF91F6193719302979983888319
:101110003CC080914A0290914B02892B41F480910E
:101120006E0190916F0190934B0280934A0240911F
:101130007001509171014115510541F44DB75EB7F1
:1011400080916C0190916D01481B590B20914A02CE
:1011500030914B0224173507B0F4CA01821B930B60
:101160008617970780F0AB014E5F5F4F8417950796
:1011700050F0420F531F50934B0240934A02F90123
:101180006193719302C0E0E0F0E0CF01DF91CF9175
:101190001F910F910895CF93DF939C01009709F45D
:1011A0008FC0EC0122971B821A8260914C027091D1
:1011B0004D026115710581F488819981820F931F19
:1011C00020914A0230914B022817390739F5D09304
:1011D0004B02C0934A0274C0DB0140E050E0AC1700
:1011E000BD0708F1BB83AA83FE0121913191E20F73
:1011F000F31FAE17BF0779F48D919C911197280FBB
:10120000391F2E5F3F4F3983288312968D919C9111
:1012100013979B838A834115510571F4D0934D0236
:10122000C0934C024DC012968D919C911397AD01C5
:10123000009711F0DC01D3CFDA011396DC93CE9343
:101240001297FA0121913191E20FF31FCE17DF07B8
:1012500069F488819981280F391F2E5F3F4FFA0169
:10126000318320838A819B8193838283E0E0F0E055
:10127000DB0112968D919C911397009719F0BC0198
:10128000FD01F6CFAB014E5F5F4FDB018D919C916D
:10129000840F951F20914A0230914B02281739077D
:1012A00079F4309729F410924D0210924C0202C04A
:1012B000138212824250504050934B0240934A0294
:1012C000DF91CF9108956F927F928F929F92AF920C
:1012D000BF92CF92DF92EF92FF920F931F93CF9323
:1012E000DF938C01009729F4CB010E942E088C011A
:1012F000BBC08EEFE82E8FEFF82EE00EF11E4801F6
:10130000860E971E8E149F0408F4ACC0D7014D9131
:101310005C91119746175707B8F04530510508F40E
:10132000A3C0CA0104978617970708F49DC04250CE
:101330005040461B570BF401419351936D937C939E
:10134000CF010E94CB0890C05B01A41AB50A3801F6
:10135000640E751EA0914C02B0914D02E0E0F0E0E9
:10136000CC24DD2447C0A615B705A9F5CD91DC91A5
:101370001197CE0102968A159B0568F1CE018A1954
:101380009B09029612962C91129713963C91059701
:1013900058F0F40122833383CA19DB09D183C08357
:1013A000D7016D937C9309C04E5F5F4F4C0F5D1F5B
:1013B000F70151834083C901FC01C114D10431F00C
:1013C000D6011396FC93EE9312974EC0F0934D0204
:1013D000E0934C0249C08D919C911197E817F90751
:1013E00008F4FC016D0112968C91129713969C9152
:1013F0009C01D901109709F0B6CF80914A029091D3
:101400004B0286159705E9F4E617F707D0F420910B
:101410007001309171012115310541F42DB73EB7AE
:1014200080916C0190916D01281B390B82169306F7
:10143000C8F490924B0280924A02F7017183608354
:1014400013C0CB010E942E08EC01009759F0D70180
:101450004D915C91B8010E946100C8010E94CB08C7
:101460008E0102C000E010E0C801DF91CF911F9112
:101470000F91FF90EF90DF90CF90BF90AF909F9033
:101480008F907F906F900895A1E21A2EAA1BBB1B2C
:10149000FD010DC0AA1FBB1FEE1FFF1FA217B30740
:1014A000E407F50720F0A21BB30BE40BF50B661F56
:1014B000771F881F991F1A9469F76095709580951A
:1014C00090959B01AC01BD01CF010895EE0FFF1F68
:1014D0000590F491E02D0994AA1BBB1B51E107C0B4
:1014E000AA1FBB1FA617B70710F0A61BB70B881FB4
:1014F000991F5A95A9F780959095BC01CD01089543
:1015000010E0CCE6D0E004C0FE010E94680A2296FA
:0A151000CE36D107C9F7F894FFCFDB
:10151A00006162630053656E736F722076616C7549
:10152A00653A20006D696C6C697328292076616CB4
:10153A0075653A2000737472696E675468726565DE
:10154A00203D20007468697320737472696E6700A5
:10155A000A0A416464696E6720737472696E6773FC
:10156A0020746F6765746865722028636F6E6361A3
:10157A0074656E6174696F6E293A000180004E02CB
:10158A00000000000000A10448053704680448046C
:02159A009104BA
:00000001FF
